{
  "abi": [
    {
      "anonymous": false,
      "inputs": [
        {
          "indexed": false,
          "internalType": "bytes32",
          "name": "offerId",
          "type": "bytes32"
        },
        {
          "indexed": false,
          "internalType": "address",
          "name": "consumer",
          "type": "address"
        },
        {
          "indexed": false,
          "internalType": "uint256",
          "name": "payment",
          "type": "uint256"
        }
      ],
      "name": "OfferAccepted",
      "type": "event"
    },
    {
      "anonymous": false,
      "inputs": [
        {
          "indexed": false,
          "internalType": "bytes32",
          "name": "offerId",
          "type": "bytes32"
        },
        {
          "indexed": false,
          "internalType": "address",
          "name": "provider",
          "type": "address"
        },
        {
          "indexed": false,
          "internalType": "uint256",
          "name": "computingPower",
          "type": "uint256"
        },
        {
          "indexed": false,
          "internalType": "uint256",
          "name": "pricePerHour",
          "type": "uint256"
        },
        {
          "indexed": false,
          "internalType": "uint256",
          "name": "availabilityEndTime",
          "type": "uint256"
        }
      ],
      "name": "OfferCreated",
      "type": "event"
    },
    {
      "anonymous": false,
      "inputs": [
        {
          "indexed": false,
          "internalType": "bytes32",
          "name": "offerId",
          "type": "bytes32"
        },
        {
          "indexed": false,
          "internalType": "address",
          "name": "consumer",
          "type": "address"
        },
        {
          "indexed": false,
          "internalType": "address",
          "name": "provider",
          "type": "address"
        },
        {
          "indexed": false,
          "internalType": "uint256",
          "name": "totalPayment",
          "type": "uint256"
        }
      ],
      "name": "PaymentCreated",
      "type": "event"
    },
    {
      "anonymous": false,
      "inputs": [
        {
          "indexed": false,
          "internalType": "bytes32",
          "name": "offerId",
          "type": "bytes32"
        }
      ],
      "name": "TaskCompleted",
      "type": "event"
    },
    {
      "inputs": [
        {
          "internalType": "bytes32",
          "name": "offerId",
          "type": "bytes32"
        }
      ],
      "name": "acceptOffer",
      "outputs": [],
      "stateMutability": "payable",
      "type": "function"
    },
    {
      "inputs": [
        {
          "internalType": "bytes32",
          "name": "offerId",
          "type": "bytes32"
        }
      ],
      "name": "completeTask",
      "outputs": [],
      "stateMutability": "nonpayable",
      "type": "function"
    },
    {
      "inputs": [
        {
          "internalType": "uint256",
          "name": "computingPower",
          "type": "uint256"
        },
        {
          "internalType": "uint256",
          "name": "pricePerHour",
          "type": "uint256"
        },
        {
          "internalType": "uint256",
          "name": "durationHours",
          "type": "uint256"
        }
      ],
      "name": "createOffer",
      "outputs": [],
      "stateMutability": "nonpayable",
      "type": "function"
    },
    {
      "inputs": [
        {
          "internalType": "bytes32",
          "name": "offerId",
          "type": "bytes32"
        }
      ],
      "name": "createPayment",
      "outputs": [
        {
          "internalType": "uint256",
          "name": "",
          "type": "uint256"
        }
      ],
      "stateMutability": "nonpayable",
      "type": "function"
    },
    {
      "inputs": [
        {
          "internalType": "bytes32",
          "name": "offerId",
          "type": "bytes32"
        }
      ],
      "name": "getOfferDetails",
      "outputs": [
        {
          "internalType": "address",
          "name": "provider",
          "type": "address"
        },
        {
          "internalType": "uint256",
          "name": "computingPower",
          "type": "uint256"
        },
        {
          "internalType": "uint256",
          "name": "pricePerHour",
          "type": "uint256"
        },
        {
          "internalType": "uint256",
          "name": "availabilityEndTime",
          "type": "uint256"
        },
        {
          "internalType": "bool",
          "name": "isActive",
          "type": "bool"
        }
      ],
      "stateMutability": "view",
      "type": "function"
    },
    {
      "inputs": [
        {
          "internalType": "bytes32",
          "name": "",
          "type": "bytes32"
        }
      ],
      "name": "offers",
      "outputs": [
        {
          "internalType": "address",
          "name": "provider",
          "type": "address"
        },
        {
          "internalType": "uint256",
          "name": "computingPower",
          "type": "uint256"
        },
        {
          "internalType": "uint256",
          "name": "pricePerHour",
          "type": "uint256"
        },
        {
          "internalType": "uint256",
          "name": "availabilityEndTime",
          "type": "uint256"
        },
        {
          "internalType": "bool",
          "name": "isActive",
          "type": "bool"
        }
      ],
      "stateMutability": "view",
      "type": "function"
    },
    {
      "inputs": [],
      "name": "totalCollateral",
      "outputs": [
        {
          "internalType": "uint256",
          "name": "",
          "type": "uint256"
        }
      ],
      "stateMutability": "view",
      "type": "function"
    },
    {
      "inputs": [
        {
          "internalType": "address",
          "name": "",
          "type": "address"
        }
      ],
      "name": "userCollateral",
      "outputs": [
        {
          "internalType": "uint256",
          "name": "",
          "type": "uint256"
        }
      ],
      "stateMutability": "view",
      "type": "function"
    },
    {
      "inputs": [],
      "name": "withdrawCollateral",
      "outputs": [],
      "stateMutability": "nonpayable",
      "type": "function"
    }
  ],
  "bytecode": {
    "object": "0x608060405234801561001057600080fd5b50610afc806100206000396000f3fe6080604052600436106100865760003560e01c80637c0390f7116100595780637c0390f7146101765780638b74097514610196578063b596a15e146101b6578063dc35a900146101c9578063f69f1e4a146101e957600080fd5b8063474d3ff01461008b5780634ac8eb5f1461011b57806359c153be1461013f5780636348562514610156575b600080fd5b34801561009757600080fd5b506100e26100a63660046109d6565b600060208190529081526040902080546001820154600283015460038401546004909401546001600160a01b0390931693919290919060ff1685565b604080516001600160a01b03909616865260208601949094529284019190915260608301521515608082015260a0015b60405180910390f35b34801561012757600080fd5b5061013160025481565b604051908152602001610112565b34801561014b57600080fd5b50610154610216565b005b34801561016257600080fd5b506101316101713660046109d6565b6102b7565b34801561018257600080fd5b506101546101913660046109d6565b61047c565b3480156101a257600080fd5b506100e26101b13660046109d6565b6105e3565b6101546101c43660046109d6565b610622565b3480156101d557600080fd5b506101546101e43660046109ef565b61075e565b3480156101f557600080fd5b50610131610204366004610a1b565b60016020526000908152604090205481565b33600090815260016020526040902054806102785760405162461bcd60e51b815260206004820152601960248201527f4e6f20636f6c6c61746572616c20746f2077697468647261770000000000000060448201526064015b60405180910390fd5b336000818152600160205260408082208290555183156108fc0291849190818181858888f193505050501580156102b3573d6000803e3d6000fd5b5050565b60008060006102c5846105e3565b509294509192506064915060089050601060048260006102e986838686828c6108fd565b3360009081526001602052604090205490915081111561034b5760405162461bcd60e51b815260206004820152601760248201527f496e73756666696369656e7420636f6c6c61746572616c000000000000000000604482015260640161026f565b336000908152600160205260408120805483929061036a908490610a61565b9250508190555080600260008282546103839190610a7a565b90915550506040516000906001600160a01b038a169083908381818185875af1925050503d80600081146103d3576040519150601f19603f3d011682016040523d82523d6000602084013e6103d8565b606091505b50509050806104205760405162461bcd60e51b81526020600482015260146024820152732330b4b632b2103a379039b2b7321022ba3432b960611b604482015260640161026f565b604080518c81523360208201526001600160a01b038b16818301526060810184905290517fbfeae722deab5b34e41d6867882cfdbe3e53c6fa2701c3d62fe607cfb90482ce9181900360800190a1509998505050505050505050565b60008181526020819052604090205481906001600160a01b031633146104f65760405162461bcd60e51b815260206004820152602960248201527f4f6e6c79207468652070726f76696465722063616e20706572666f726d20746860448201526834b99030b1ba34b7b760b91b606482015260840161026f565b60008281526020819052604090206003015442111561054b5760405162461bcd60e51b815260206004820152601160248201527013d999995c881a185cc8195e1c1a5c9959607a1b604482015260640161026f565b6000610556836102b7565b600084815260208181526040808320546001600160a01b03168352600190915281208054929350839290919061058d908490610a7a565b909155505060008381526020818152604091829020600401805460ff1916905590518481527f572a2b6ee4b829f7c9a4b27bd7729666696a0b5e394e1a9ad92e925e483f02c291015b60405180910390a1505050565b600090815260208190526040902080546001820154600283015460038401546004909401546001600160a01b039093169491939092909160ff90911690565b600081815260208190526040902060040154819060ff16801561065657506000818152602081905260409020600301544211155b6106a25760405162461bcd60e51b815260206004820152601960248201527f4f66666572206973206e6f206c6f6e6765722061637469766500000000000000604482015260640161026f565b600082815260208190526040902060028101543410156106fb5760405162461bcd60e51b8152602060048201526014602482015273125b9cdd59999a58da595b9d081c185e5b595b9d60621b604482015260640161026f565b336000908152600160205260408120805434929061071a908490610a7a565b90915550506040805184815233602082015234918101919091527f7947ab5451d15b3e5f5cb9d87332b123805e40d2e0e2f689ed5d387a89c56da5906060016105d6565b60008311801561076e5750600082115b801561077a5750600081115b6107bb5760405162461bcd60e51b8152602060048201526012602482015271496e76616c696420706172616d657465727360701b604482015260640161026f565b6040516bffffffffffffffffffffffff193360601b166020820152603481018490526054810183905242607482015260009060940160408051601f19818403018152828252805160209182012060a08401835233845290830187905290820185905291506060810161082f84610e10610a8d565b6108399042610a7a565b8152600160209182018190526000848152808352604090819020845181546001600160a01b0319166001600160a01b039091161781558484015192810192909255838101516002830155606080850151600384018190556080958601516004909401805460ff191694151594909417909355815186815233948101949094529083018890528201869052918101919091527f6ea3a64e6fe5dc466d27b488f5b70d3776a5a90a18dfcae99c3bc11a41e142f39060a00160405180910390a150505050565b60008061090a8885610a8d565b6109148987610a8d565b61091e8a89610a8d565b6109288b8b610a8d565b6109329190610a7a565b61093c9190610a7a565b6109469190610a7a565b9050426000848211610958578161095a565b845b90506000610e1061096b8484610a61565b6109759190610aa4565b905060006109838286610a8d565b9050600081116109c75760405162461bcd60e51b815260206004820152600f60248201526e5061796d656e74206973207a65726f60881b604482015260640161026f565b9b9a5050505050505050505050565b6000602082840312156109e857600080fd5b5035919050565b600080600060608486031215610a0457600080fd5b505081359360208301359350604090920135919050565b600060208284031215610a2d57600080fd5b81356001600160a01b0381168114610a4457600080fd5b9392505050565b634e487b7160e01b600052601160045260246000fd5b81810381811115610a7457610a74610a4b565b92915050565b80820180821115610a7457610a74610a4b565b8082028115828204841417610a7457610a74610a4b565b600082610ac157634e487b7160e01b600052601260045260246000fd5b50049056fea2646970667358221220f3b46a43c3f396d1a2ec2fb69eb07f5a3e182d0ff9cded1574aedcb1bfd3633c64736f6c63430008140033",
    "linkReferences": {}
  },
  "methodIdentifiers": {
    "acceptOffer(bytes32)": "b596a15e",
    "completeTask(bytes32)": "7c0390f7",
    "createOffer(uint256,uint256,uint256)": "dc35a900",
    "createPayment(bytes32)": "63485625",
    "getOfferDetails(bytes32)": "8b740975",
    "offers(bytes32)": "474d3ff0",
    "totalCollateral()": "4ac8eb5f",
    "userCollateral(address)": "f69f1e4a",
    "withdrawCollateral()": "59c153be"
  },
  "id": 20
}